:020000040800F2
:10000000504D0020E5010008ED010008EF01000857
:10001000F1010008F3010008F501000800000000EC
:10002000000000000000000000000000F7010008D0
:10003000F901000800000000EB710008811B0008B6
:100040008B230008FF010008FF010008112B0008A6
:10005000FF010008FF0100086F2D0008FF010008E4
:10006000212200083122000841220008FF01000877
:10007000FF010008FF010008FF010008FF01000860
:10008000FF010008FF010008FF010008FF01000850
:10009000FF010008FF010008FF010008B12200086D
:1000A000FF010008FF010008FF010008FF01000830
:1000B000FF010008B1230008FF010008FF0100084C
:1000C000FF010008FF010008FF010008FF01000810
:1000D000FF0100084D1F0008FF010008FF01000894
:1000E000FF010008FF010008FF01000800F002F80E
:1000F00000F063F80AA090E8000C82448344AAF15F
:100100000107DA4501D100F058F8AFF2090EBAE85C
:100110000F0013F0010F18BFFB1A43F0010318473B
:10012000B47F0000D47F000010F8013B0A4413F0B4
:10013000030408BF10F8014B1D1108BF10F8015B44
:10014000641E05D010F8016B641E01F8016BF9D133
:10015000002D15D010F8014B03F00C030C2BA1EB74
:1001600004040ABF10F8013BA4EB8314A4EB03249E
:1001700005F1010314F8016B5B1E01F8016BF9D561
:10018000914238BF10F8013BD1D3704700230024BF
:1001900000250026103A28BF78C1FBD8520728BF97
:1001A00030C148BF0B607047642907F0938000207E
:1001B00070471FB51FBD10B510BD07F055F91146AA
:1001C000FFF7F7FF01F096FC07F073F903B4FFF7B0
:1001D000F2FF03BC01F0ACFE30BF72B662B680F332
:1001E000088870470948804709480047FEE7FEE74E
:1001F000FEE7FEE7FEE7FEE7FEE7FEE7FEE7FEE7D7
:1002000004480549054A064B7047000001030008F1
:10021000ED00000850470020504D002050490020BC
:10022000504900200CB50020019000906B480068F8
:1002300040F480306949086000BF6848006800F4F5
:10024000003000900198401C0190009818B9019866
:10025000B0F5A06FF1D16148006810F4003F02D002
:100260000120009001E0002000900098012842D178
:100270005B48006840F01000594908600846006873
:1002800020F0030008600846006840F002000860A3
:1002900052484068514948600846406848600846EE
:1002A000406840F4806048600846406820F47C1054
:1002B00048600846406840F4E81048600846006816
:1002C00040F08070086000BF4448006810F0007F74
:1002D000FAD04248406820F0030040494860084690
:1002E000406840F00200486000BF3C48406800F0B1
:1002F0000C000828F9D10CBD10B5FFF793FF10BD15
:1003000010B53648006840F00100344908600846DE
:10031000406834490840314948600846006832491D
:1003200008402E4908600846006820F480200860D4
:100330000846406820F4FE0048604FF41F008860C3
:10034000FFF7DAFF4FF000602849086010BD10B5D4
:10035000002100200022214B5B6803F00C0121B139
:10036000042906D0082928D107E0214B214C23601D
:1003700027E01F4B1F4C236023E0184B5B6803F4FE
:100380007010164B5B6803F48032022303EB90403D
:1003900022B9194B4343174C23600DE00F4B5B68A8
:1003A00013F4003F04D0144B4343124C236003E08A
:1003B0000F4B43430F4C236003E00D4B0D4C236068
:1003C00000BF00BF054B5B68C3F303130B4CE15C3C
:1003D000084B1B68CB40074C236010BD0010024047
:1003E000002002400000FFF8FFFFF6FE08ED00E0ED
:1003F00000127A000000002000093D0004000020E7
:100400002DE9F04104460E461746042000EB440057
:10041000FA490D5C4FF6FF7000EA0525052000EB58
:100420004400085C05433101A7F1300290B2052376
:100430002A4602F0A9FEBDE8F081704710B54FF6DC
:10044000FF70EF4908801F20EE4908800D2200212F
:10045000202003F0D9F80E220021402003F0D4F828
:100460000F220021602003F0CFF81022002180200D
:1004700003F0CAF811220021A02003F0C5F80B22D6
:100480002821002003F0F1F80C222821182003F085
:10049000ECF80D222821302003F0E7F80E22282165
:1004A000482003F0E2F80F222821602003F0DDF855
:1004B00018222821AE2003F0D8F810225021002065
:1004C00003F0D3F811225021182003F0CEF81222A5
:1004D0005021302003F0C9F813225021482003F0A6
:1004E000C4F80F225021602003F0BFF818225021D9
:1004F000AE2003F0BAF81A227821002003F0B5F8F4
:100500001B227821182003F0B0F81C22782130201B
:1005100003F0ABF81D227821482003F0A6F80F2243
:100520007821602003F0A1F814229621502003F0D6
:100530009CF815229621084603F097F8162296217A
:10054000D22003F092F81722B421502003F08DF846
:100550001822B421962003F088F81922B421D22061
:1005600003F083F840F23B1323224FF496710020EE
:1005700003F0FDF840F21D1323224FF49671002082
:1005800003F0F5F840F23B13232240F21D11104610
:1005900003F0EDF84FF49673EF2240F21D11CC20DA
:1005A00003F0E5F840F23B13CC2240F21D11104657
:1005B00003F0DDF84FF49673EF2240F23B11CC20AC
:1005C00003F0D5F840F21D135F221946412003F0D5
:1005D000CEF840F23B13502240F21D11412003F0AF
:1005E000C6F840F21D135F2240F23B11502003F089
:1005F000BEF840F23B138C2240F21D119B2003F009
:10060000B6F840F23B13AA2240F21D119B2003F0E2
:10061000AEF840F23B13AA2219468C2003F0A7F84B
:100620002022DC21002003F020F82122DC211820E8
:1006300003F01BF82222DC21BE2003F016F823224F
:10064000DC21D22003F011F810BD10B54FF6FF7079
:100650006B4908801F206B4908800D220021202053
:1006600002F0D2FF0E220021402002F0CDFF0F2227
:100670000021602002F0C8FF10220021802002F03B
:10068000C3FF11220021A02002F0BEFF002228217A
:10069000104602F0EAFF01222821122002F0E5FFB5
:1006A00002222821262002F0E0FF03222821362002
:1006B00002F0DBFF042228213C2002F0D6FF1222A8
:1006C0002821AA2003F020F813222821C22003F0B9
:1006D0001BF8052250210A2002F0C7FF06225021F4
:1006E000282002F0C2FF14225021AA2003F00CF8A7
:1006F00015225021C22003F007F8072278210A2092
:1007000002F0B3FF08227821282002F0AEFF092270
:10071000A0210A2002F0A9FF0A22A021282002F02D
:10072000A4FF40F23B13EB221946052003F01FF80B
:1007300040F23B13EB22591FE62003F018F840F279
:100740003B13EB22591DE62003F011F8C8230522C4
:1007500040F23B11104603F00AF8C8230522CD21D0
:10076000002003F004F8C8230522CD210A2002F05E
:10077000FEFF10227821B42002F0C6FF0F22A02134
:10078000B42002F0C1FF10BD03E04FF47A7001F015
:1007900052FAFAE703E04FF4487001F04CFAFAE736
:1007A000ADF5727D0026002501201749086084E21E
:1007B00016488078B0427CD015480078002878D15F
:1007C0000E4884794FF6FF7000EA04240B48C07984
:1007D0000443B6A820F81540FA2C06DD4FF40000BB
:1007E00003F01DF80749088033E0962C12DD4FF026
:1007F000801003F014F8034908802AE0D83600205E
:100800005E1E0020601E0020AC012142A0370020A7
:100810002C000020732C06DD4FF47F0002F0FFFF58
:10082000FE49088015E04B2C05DDFD4802F0F7FF7E
:10083000FA4908800DE0232C05DDFA4802F0EFFFAD
:10084000F649088005E04FF47F4002F0E8FFF349E5
:100850000880032D21DBB6A830F815000A2190FB93
:10086000F1F040F23B11081A87B2681EB6A931F8C0
:1008700010000A2190FBF1F040F23B11081A1FFA18
:1008800080F8022101EB45018AB24FF6FF7101EABF
:1008900045003B46414602F064FB4FF47A7094FBFE
:1008A000F0F0C7B23A462821552002F02DFF64200F
:1008B00000E0FEE194FBF0F00A2190FBF1F201FB75
:1008C0001200C7B23A462821662002F01DFF6420BC
:1008D00094FBF0F100FB11400A2190FBF1F0C7B24C
:1008E0003A462821772002F00FFF0A2094FBF0F10E
:1008F00000FB1140C7B23A4628218A2002F004FFCB
:10090000C948047F4FF6FF7000EA0424C648407FC0
:1009100004437AA820F8154040F2A460844205DD23
:10092000C24802F07CFFBD4908802AE040F2DC505A
:10093000844205DDBE4802F072FFB849088020E01D
:10094000B4F5966F05DDBB4802F069FFB349088036
:1009500017E0B4F5617F05DDB74802F060FFAF49ED
:1009600008800EE0B4F5FA7F05DDB24802F057FFCB
:10097000AA49088005E04FF47F4002F050FFA749E4
:100980000880032D17DB7AAF37F81570C7F59C7711
:10099000BBB2022707EB4507BAB26F1E0DF5F47C18
:1009A0003CF81770C7F59C77B9B24FF6FF7707EAA6
:1009B000450002F0D6FA4FF47A7094FBF0F0C7B21B
:1009C0003A465021552002F09FFE11225021662008
:1009D00002F09AFE642094FBF0F00A2190FBF1F201
:1009E00001FB1200C7B23A4650216E2002F08CFE85
:1009F000642094FBF0F100FB11400A2190FBF1F020
:100A0000C7B23A465021802002F07EFE0A2094FBB5
:100A1000F0F100FB1140C7B23A465021912002F09C
:100A200073FE8148847F4FF6FF7000EA04247E48FD
:100A3000C07F04433EA820F81540B4F5C87F06DD0A
:100A40004FF4180002F0EBFE7449088027E0B4F57B
:100A5000AF7F06DD4FF47F0002F0E1FE6F490880B2
:100A60001DE0B4F5967F05DD6D4802F0D8FE6B49B8
:100A7000088014E0C82C05DD704802F0D0FE6749FC
:100A800008800CE0642C05DD6D4802F0C8FE634967
:100A9000088004E06B4802F0C2FE60490880032D24
:100AA00025DB0DF1F80C3CF8157007EBD77C4FEA0D
:100AB0006C0CCCF5C87C1FFA8CF3A5F1010C0DF180
:100AC000F80939F81C8008EBD87C4FEA6C0CCCF59F
:100AD000C87C1FFA8CF14FF0020C0CEB450C1FFA8E
:100AE0008CF24FF6FF7C0CEA450002F03AFA6420E3
:100AF00094FBF0F00A2190FBF1F201FB1200C7B267
:100B00003A467821662002F0FFFD642094FBF0F164
:100B100000FB11400A2190FBF1F0C7B23A46782160
:100B2000772002F0F1FD112278218A2002F0ECFDFD
:100B30000A2094FBF0F100FB1140C7B23A4678213D
:100B4000962002F0E1FD384890F820404FF6FF7003
:100B500000EA0424344890F82100044302A820F855
:100B60001540B4F5617F06DD4FF4180002F057FE22
:100B70002A49088029E0B4F5487F06DD4FF47F005C
:100B800002F04DFE254908801FE0B4F52F7F05DDFA
:100B9000234802F044FE2149088016E0B4F5FA7FAC
:100BA00005DD264802F03BFE1C4908800DE0B4F547
:100BB000967F05DD224802F032FE1849088004E0E5
:100BC000204802F02CFE15490880032D1FDB02A8E7
:100BD00030F815000A2190FBF1F0C0F5967087B24D
:100BE000681E02A931F810000A2190FBF1F0C0F54F
:100BF00096701FFA80F8022101EB45018AB24FF688
:100C0000FF7101EA45003B46414602F0AAF9642023
:100C100094FBF0F00A2190FBF1F215E0601E002039
:100C20000099FF0000FFFF00D8360020734D5200EE
:100C3000C79D6300A1D16F00D2CC8900D8783C0059
:100C4000C221F300C6853D0001FB1200C7B23A463F
:100C5000A021662002F058FD642094FBF0F100FB17
:100C600011400A2190FBF1F0C7B23A46A02177204B
:100C700002F04AFD1122A0218A2002F045FD0A203F
:100C800094FBF0F100FB1140C7B23A46A021962038
:100C900002F03AFD681C85B26E2D0ADD00254FF684
:100CA000FF7040F23913E122C82100900A2002F0BF
:100CB000CEF94FF4FA7000F0BEFF79E5002510E0A0
:100CC000FE484078A04203D0FC484478681CC5B276
:100CD000142D02DD002502F021F84FF47A7000F0A7
:100CE000AAFFEDE786B00020F54908700024F3481C
:100CF00000788DF80C00F14840788DF80D00EF4831
:100D000080788DF80E00ED488088ADF81000EB4833
:100D100080798DF81200E948C0798DF81300E74812
:100D2000007A8DF81400FDE3681CC5B2062D00DDC5
:100D30000025E448006808B902F0E1FEE0480078C8
:100D400020B101287ED002287DD1ECE3DE48008866
:100D50000A2801DD012000E00020DB4949886429E0
:100D600001DD012100E0002108426DD00020D649BC
:100D7000088048800120D24908704FF6FF7002F0C9
:100D800074FAFFF75BFBD14800784FF47A7190FB5F
:100D9000F1F0C6B232462821742002F0B5FCCB48EF
:100DA0000078642190FBF1F201FB12000A2190FB14
:100DB000F1F0C6B232462821862002F0A5FCC348D5
:100DC00000780A2190FBF1F201FB1200C6B2324614
:100DD0002821982002F098FCBD4800784FF47A71E1
:100DE00090FBF1F0C6B232465021742002F08CFC28
:100DF000B7480078642190FBF1F201FB12000A2150
:100E000090FBF1F0C6B232465021862002F07CFC05
:100E1000AF4800780A2190FBF1F201FB1200C6B244
:100E200032465021982002F06FFCBDF810004FF4BC
:100E30007A7190FBF1F0C6B232469621002002F0A2
:100E400063FC02E0A8E0FCE3A5E0BDF810004FF46D
:100E50007A7190FBF1F201FB1200642190FBF1F03A
:100E6000C6B232469621122002F04EFCBDF81000A8
:100E7000642190FBF1F201FB12000A2190FBF1F0DA
:100E8000C6B232469621242002F03EFCBDF8100086
:100E90000A2190FBF1F201FB1200C6B23246962104
:100EA000362002F031FC9DF812000A2190FBF1F08F
:100EB000C6B232469621702002F026FC9DF8120040
:100EC0000A2190FBF1F201FB1200C6B232469621D4
:100ED000822002F019FC9DF813000A2190FBF1F02A
:100EE000C6B232469621AA2002F00EFC9DF81300ED
:100EF0000A2190FBF1F201FB1200C6B232469621A4
:100F0000BC2002F001FC9DF80C000A2190FBF1F0DE
:100F1000C6B23246B421242002F0F6FB9DF80C0044
:100F20000A2190FBF1F201FB1200C6B23246B42155
:100F3000362002F0E9FB9DF80D000A2190FBF1F04C
:100F4000C6B23246B421702002F0DEFB9DF80D00DF
:100F50000A2190FBF1F201FB1200C6B23246B42125
:100F6000822002F0D1FB9DF80E000A2190FBF1F0E7
:100F7000C6B23246B421AA2002F0C6FB9DF80E008C
:100F80000A2190FBF1F201FB1200C6B23246B421F5
:100F9000BC2002F0B9FB54E3092C41D2DFE804F095
:100FA00005417DDCFBFAF9F8F700052D29DA474801
:100FB00000784FF47A7190FBF1F0C6B232462821E6
:100FC000742002F0A1FB41480078642190FBF1F20B
:100FD00001FB12000A2190FBF1F0C6B23246282133
:100FE000862002F091FB394800780A2190FBF1F24B
:100FF00001FB1200C6B232462821982002F084FB81
:101000000EE016222821742002F07EFB16222821F1
:10101000862002F079FB16222821982002F074FB2A
:101020005EE1052D29DA2A4800784FF47A7190FBA9
:10103000F1F0C6B232465021742002F065FB24481C
:101040000078642190FBF1F201FB12000A2190FB71
:10105000F1F0C6B232465021862002F055FB1C4802
:1010600000780A2190FBF1F201FB1200C6B2324671
:101070005021982002F048FB0EE0162250217420E7
:1010800002F042FB16225021862002F03DFB162280
:101090005021982002F038FB22E1052D47DABDF8F7
:1010A00010004FF47A7190FBF1F0C6B232469621EF
:1010B000002002F029FBBDF810000BE0A037002053
:1010C0002C0000201C0121426E1E00202D0000205B
:1010D0002E0000204FF47A7190FBF1F201FB120018
:1010E000642190FBF1F0C6B232469621122002F044
:1010F0000BFBBDF81000642190FBF1F201FB120024
:101100000A2190FBF1F0C6B232469621242002F06B
:10111000FBFABDF810000A2190FBF1F201FB12006E
:10112000C6B232469621362002F0EEFA13E01622BD
:101130009621002002F0E8FA16229621122002F0F1
:10114000E3FA16229621242002F0DEFA16229621D6
:10115000362002F0D9FAC3E0052D1DDA9DF8120001
:101160000A2190FBF1F0C6B232469621702002F0BF
:10117000CBFA9DF812000A2190FBF1F201FB12005C
:10118000C6B232469621822002F0BEFA0EE0A6E0F8
:101190007FE058E031E00AE016229621702002F04C
:1011A000B3FA16229621822002F0AEFA98E0052DBD
:1011B00018DA9DF813000A2190FBF1F0C6B232460E
:1011C0009621AA2002F0A0FA9DF813000A2190FBB4
:1011D000F1F201FB1200C6B232469621BC2002F0A9
:1011E00093FA09E016229621AA2002F08DFA16221F
:1011F0009621BC2002F088FA72E0052D18DA9DF8DD
:101200000C000A2190FBF1F0C6B23246B421242032
:1012100002F07AFA9DF80C000A2190FBF1F201FB32
:101220001200C6B23246B421362002F06DFA09E04F
:101230001622B421242002F067FA1622B4213620A7
:1012400002F062FA4CE0052D18DA9DF80D000A2133
:1012500090FBF1F0C6B23246B421702002F054FA8D
:101260009DF80D000A2190FBF1F201FB1200C6B2BD
:101270003246B421822002F047FA09E01622B42156
:10128000702002F041FA1622B421822002F03CFACA
:1012900026E0052D18DA9DF80E000A2190FBF1F0EA
:1012A000C6B23246B421AA2002F02EFA9DF80E00F2
:1012B0000A2190FBF1F201FB1200C6B23246B421C2
:1012C000BC2002F021FA09E01622B421AA2002F083
:1012D0001BFA1622B421BC2002F016FA00E000BF6F
:1012E00000BFF7484088DC2801DD012000E0002035
:1012F000F3494988F02901DA012100E00021084280
:1013000047D0EF480088002801DD012000E00020E0
:10131000EB490988322901DA012100E00021084265
:1013200017D09DF80E009DF80D10CDE900109DF826
:101330000C309DF813209DF81210BDF8100001F03C
:10134000B0FA0020DE49088048804FF4FA7000F0BF
:1013500072FCDB480088BE2801DD012000E000208F
:10136000D7490988F02901DA012100E0002108426B
:101370000FD00020D3490870D149088048804FF62B
:10138000FF7001F072FFFFF760F94FF4FA7000F0A0
:1013900052FCCB484088B0F58F7F6EDBC848008890
:1013A000002801DD012000E00020C549098823292B
:1013B00001DA012100E00021084261D0092C5ED24F
:1013C000DFE804F0050F19242F3A45505C00BE48B1
:1013D0000078002804DDBC480078401EBA49087037
:1013E0004DE0BA480078002804DDB8480078401E77
:1013F000B649087043E0B6488088002805DDBDF88E
:101400001000401E80B2ADF8100038E0B04880797E
:10141000002805DD9DF81200401EC0B28DF81200B4
:101420002DE0AB48C079002805DD9DF81300401E73
:10143000C0B28DF8130022E0A5480078002805DD31
:101440009DF80C00401EC0B28DF80C0017E0A048BB
:101450004078002805DD9DF80D00401EC0B28DF8D3
:101460000D000CE09A488078002805DD9DF80E00FC
:10147000401EC0B28DF80E0001E0C1E200BFB7E22D
:101480008F480088412801DD012000E000208C49C0
:1014900009885F2901DA012100E0002108427DD09E
:1014A000072C01DA601CC4B2874800784FF47A71C7
:1014B00090FBF1F0C6B232462821742002F024F9E4
:1014C00081480078642190FBF1F201FB12000A21AF
:1014D00090FBF1F0C6B232462821862002F014F9C2
:1014E000794800780A2190FBF1F201FB1200C6B2A4
:1014F00032462821982002F007F9744800784FF40A
:101500007A7190FBF1F0C6B232465021742002F09D
:10151000FBF86E480078642190FBF1F201FB1200A9
:101520000A2101E072E26CE290FBF1F0C6B23246B1
:101530005021862002F0E8F8644800780A2190FBE8
:10154000F1F201FB1200C6B232465021982002F09F
:10155000DBF8BDF810004FF47A7190FBF1F0C6B2E1
:1015600032469621002002F0CFF8BDF810004FF46B
:101570007A7190FBF1F201FB1200642190FBF1F013
:10158000C6B232469621122002F0BEF8BDF8100015
:10159000642190FBF1F201FB120000E09AE00A21C5
:1015A00090FBF1F0C6B232469621242002F0ACF84E
:1015B000BDF810000A2190FBF1F201FB1200C6B247
:1015C00032469621362002F09FF89DF812000A213B
:1015D00090FBF1F0C6B232469621702002F094F8EA
:1015E0009DF812000A2190FBF1F201FB1200C6B235
:1015F00032469621822002F087F89DF813000A21D6
:1016000090FBF1F0C6B232469621AA2002F07CF897
:101610009DF813000A2190FBF1F201FB1200C6B203
:1016200032469621BC2002F06FF89DF80C000A218A
:1016300090FBF1F0C6B23246B421242002F064F8E7
:1016400000E0DFE19DF80C000A2190FBF1F201FBC4
:101650001200C6B23246B421362002F055F89DF889
:101660000D000A2190FBF1F0C6B23246B421702081
:1016700002F04AF89DF80D000A2190FBF1F201FBFF
:101680001200C6B23246B421822002F03DF89DF825
:101690000E000A2190FBF1F0C6B23246B421AA2016
:1016A00002F032F89DF80E000A2190FBF1F201FBE6
:1016B0001200C6B23246B421BC2002F025F897E1F0
:1016C0006E1E00202C0000202D0000202E00002087
:1016D000A0370020F64800888C2801DD012000E0BA
:1016E0000020F3490988AA2901DA012100E000213C
:1016F00008427DD0002C01DD601EC4B2ED480078A8
:101700004FF47A7190FBF1F0C6B232462821742072
:1017100001F0FAFFE7480078642190FBF1F201FB49
:1017200012000A2190FBF1F0C6B232462821862031
:1017300001F0EAFFDF4800780A2190FBF1F201FB9B
:101740001200C6B232462821982001F0DDFFDA48A7
:1017500000784FF47A7190FBF1F0C6B23246502116
:10176000742001F0D1FFD4480078642190FBF1F29D
:1017700001FB12000A2190FBF1F0C6B23246502163
:10178000862001F0C1FFCC4800780A2190FBF1F2DD
:1017900001FB1200C6B232465021982001F0B4FF7E
:1017A000BDF810004FF47A7190FBF1F0C6B23246EA
:1017B0009621002001F0A8FFBDF810004FF47A71C7
:1017C00090FBF1F201FB1200642190FBF1F0C6B234
:1017D00032469621122001F097FFBDF810006421D7
:1017E00090FBF1F201FB12000A2190FBF1F000E006
:1017F0008BE0C6B232469621242001F085FFBDF869
:1018000010000A2190FBF1F201FB1200C6B2324631
:101810009621362001F078FF9DF812000A2190FBF6
:10182000F1F0C6B232469621702001F06DFF9DF8AE
:1018300012000A2190FBF1F201FB1200C6B23246FF
:101840009621822001F060FF9DF813000A2190FB91
:10185000F1F0C6B232469621AA2001F055FF9DF85C
:1018600013000A2190FBF1F201FB1200C6B23246CE
:101870009621BC2001F048FF9DF80C000A2190FB46
:10188000F1F0C6B23246B421242001F03DFF9DF8AC
:101890000C000A2190FBF1F201FB1200C6B23246A5
:1018A000B421362001F030FF9DF80D000A2190FB95
:1018B000F1F0C6B23246B421702001F025FF9DF848
:1018C0000D000A2190FBF1F201FB1200C6B2324674
:1018D000B421822001F018FF9DF80E000A2190FB30
:1018E000F1F0C6B23246B421AA2001F00DFF9DF8F6
:1018F0000E000A2190FBF1F201FB1200C6B2324643
:10190000B421BC2001F000FF72E069480088CC28B7
:1019100001DD012000E0002065490988EF2901DA96
:10192000012100E00021084262D0092C5FD2DFE8EB
:1019300004F0050F1926313C47525D005D480078E0
:10194000FA2804DA5B480078401C5A4908704EE0D7
:1019500059480078FA2804DA57480078401C56495C
:10196000087044E05548808840F63301884205DA23
:10197000BDF81000401C80B2ADF8100037E04F48B1
:1019800080790C2805DA9DF81200401CC0B28DF851
:1019900012002CE04948C0791F2805DA9DF8130091
:1019A000401CC0B28DF8130021E04448007818288C
:1019B00005DA9DF80C00401CC0B28DF80C0016E052
:1019C0003E4840783C2805DA9DF80D00401CC0B226
:1019D0008DF80D000BE0394880783C2805DA9DF839
:1019E0000E00401CC0B28DF80E0000E000BF00BF2A
:1019F00000202F49088048804FF4FA7000F01BF94E
:101A000000E000BF00BF642000F015F9FFF78CB9BB
:101A100002E0642000F00FF9FBE738B5044600252A
:101A200000BF002003F0E9FC254908604FF48071F5
:101A3000244803F0E1FE244908606946002003F0D1
:101A40003BF92249086002F0ADF802F0C7FE05F04C
:101A5000A5FB054607231E4A0021AFF24B0004F008
:101A6000F2FB06231B4A0021AFF6875004F0EBFB84
:101A70000523194A0021AFF6BB5004F0E4FB042310
:101A8000164A0021164804F0DEFB0323154A002104
:101A9000154804F0D8FB0223144A0021144804F02E
:101AA000D2FB0A2004F053FE284605F07BFB38BD2C
:101AB0006E1E00202D0000202E000020A0370020E8
:101AC00014000020D8320020180000202800002038
:101AD000D4220020D4240020D4260020D42E00209C
:101AE000A1070008D430002095070008D432002058
:101AF0008907000810B5092000F0BBF94FF4165112
:101B0000482000F068FA482000F042F800F0DCFAC3
:101B100001F0E8FB02F09AFB00BF00F041FF002853
:101B2000FBD10520124908700A201249087012489A
:101B300004882404001D008804430D4909782144C9
:101B40000C4A1278881801F0ABF84FF6FF7001F0DC
:101B50008CFBFEF77AFD02F002FD0A23074A002102
:101B6000AFF2491004F06FFB02F020FE002010BD20
:101B70002E0000202D00002018280040D420002036
:101B800010B502F004FD02F048FE02F01BFD10BD8E
:101B900010B54FF0E022126922F004024FF0E0236A
:101BA0001A61C31700EB5373DB10324C2370C31759
:101BB00000EB5373D9104FF4FA62514302222E4BBB
:101BC0001A804FF0E022126942F002024FF0E02347
:101BD0001A611A465161126942F001021A6110BD80
:101BE0002DE9F047074600264FF0E020D0F814908A
:101BF0002048007807FB00F800BF02F01BFD4FF003
:101C0000E020856911E04FF0E0208469AC420CD0FF
:101C1000AC4202D2281B064403E0A9EB040028448E
:101C200006442546464500D300E0ECE700BF02F03D
:101C300046FDBDE8F08770B50446104800780128DD
:101C400011D10D480088844206DB0B48008894FBC4
:101C5000F0F5284604F042FE0748008894FBF0F1B6
:101C600000FB114084B24FF47A7104FB01F0FFF7DE
:101C7000B7FF70BD30000020320000209A1E002007
:101C80009E4A0A4002439E4B1A6070470146072352
:101C900023EA010212029A4B1B1D18684FF6FF033C
:101CA0001840984B18431043954B1B1D1860704704
:101CB0002DE9F0410746884614461D462846FFF7A1
:101CC000E5FFC5F1040007FA00F60F20284100EAFD
:101CD0000800064306F00F06202C0CDA8A4801683B
:101CE0004FF0010000FA04F041EA00014FF0E0205B
:101CF000C0F800110DE085480068A4F120014FF004
:101D0000010202FA01F240EA02004FF0E021C1F8BC
:101D100004017F48005D40EA06107D490855BDE892
:101D2000F08170B504460B46CE1701EB9676B010E5
:101D3000CE1701EB9676B610A1EB8606B606350EE9
:101D4000744B9B6943F00103724EB3614FEAB633A3
:101D500053F820300F26AE40B3436F4E46F8203084
:101D6000334653F8203004FA05F633436A4E46F8FA
:101D700020306A4B1E6801238B401E43674B1E6058
:101D800012F0010F08D0654B0C331B6801268E4002
:101D90003343624E0C36336012F0020F08D05F4BB3
:101DA00008331B6801268E4033435C4E083633608F
:101DB00070BD00B5002057490861C8601420486113
:101DC00000208861C8610846006840F00100086092
:101DD00008464068524908404E4948600846006835
:101DE000504908404B4908600846006820F48020AC
:101DF00008600846406820F4FE00486000208860C3
:101E000000214FF00060FFF73BFF00BD10B53C48DC
:101E10000830006840F004003949083108603D4846
:101E2000C06940F080503B49C8613F48006840F0BD
:101E300002003D490860FEF7CFF910BD3148001D92
:101E40002F49091D0860704701464906314A9269C9
:101E500042F001022F4B9A612F4A083A526822F051
:101E6000E0622D4B083B5A601A4652680A435A609A
:101E7000704730B504460025FFF79BFF25480068F2
:101E800040F480302349086000BF22480068400CBD
:101E9000FBD04FF480601F494860A01EC4B20846C2
:101EA000406840EA844048600846406840F480301A
:101EB00048601E48006840F032001C490860154820
:101EC000006840F080701349086000BF1148006846
:101ED000400EFBD00F48406840F002000D494860BA
:101EE00005E00C484068C0F3870505F00305022DA6
:101EF000F7D10120FFF7A8FF30BD000080FFFF1FD2
:101F000008ED00E00000FA0500E100E004E100E077
:101F100000E400E00010024008000140000401401D
:101F20000000FFF8FFFFF6FE0070004000200240B6
:101F3000014600BF704700BF5C4A128812F0400F94
:101F4000FAD0C2B2594B1B1D1A80704710B502F06F
:101F50001EFB5648008810F0200F39D05348001D52
:101F60000088C4B2524853490988445451480088F3
:101F7000032828DB4F480088C01E4D49085C4228D2
:101F800001D1012000E000204A490988891E484A01
:101F9000515C4D2901D1012100E000210840444954
:101FA000444A1288895C242901D1012100E00021E2
:101FB000084208D03E483F490988405C3E490870C5
:101FC00003203C4908803B480088401C3949088070
:101FD00002F0F8FA10BD2DE9F05F05460E4630011B
:101FE00005F026FE8146354905FB01F005F020FE8F
:101FF0008246494605F03AFD0746384605F0F8FDA9
:1020000084B2204605F014FE8346394605F055FF9C
:1020100082464FF0834105F053FE814605F0E8FD0E
:1020200080464FF6FF7000EA041404EB080084B207
:102030002348806940F0040021498861084680698E
:1020400040F4804088611F48006820F47F601D498B
:1020500008600846006840F40B6008601848C068D3
:1020600040F480401649C8600846C06820F48040AB
:10207000C8600E4808300480001D008842F20C0140
:1020800008430A490C3108800846008840F48070F3
:1020900008800846008840F020000880022325229E
:1020A00003210846FFF704FEBDE8F09F0038014019
:1020B000D8360020340000203600002040420F00B7
:1020C00000100240040801401048806940F00400FC
:1020D0000E4988610E48006820F47F200C49086092
:1020E0000846006840F44C30086009480830006831
:1020F00040F400600649083108600846006840F472
:1021000080500860002003490860704700100240BA
:1021100004080140AC0121423748806940F00400C6
:10212000354988610846806940F04000886133483D
:10213000006820F00F00314908600846006840F050
:10214000080008602E4800682E4908402C490860A5
:10215000084600682C4908432949086028480C3083
:10216000006840F01C0026490C310860704710B52B
:10217000044614B10120254908702448007838B37A
:102180002348006848B12348006830B122480068FD
:1021900018B12248006801281AD10A20FFF74BFD28
:1021A00000201A4908701A48006808B9012010BDBB
:1021B0001848006808B90220F9E71748006808B90C
:1021C0000320F4E715480068012813D10420EEE746
:1021D0000F48006801280DD10E480068012809D178
:1021E0000D480068012805D10C48006810B901208D
:1021F000064908700020DAE700100240000801409C
:1022000000180140FF00F0FF008808003C0000209B
:10221000100123420C012342080123420001214204
:1022200010B50A20FFF707FD04202B49086010BDF8
:1022300010B50A20FFF7FFFC08202749086010BDF1
:1022400010B50A20FFF7F7FC10202349086010BDE5
:1022500010B5FFF761FF022200210846FFF761FD7C
:10226000012202210420FFF75CFD0122032104204A
:10227000FFF757FD012204210846FFF752FD022314
:10228000062203211846FFF713FD022308221946F0
:102290001846FFF70DFD0223092201211846FFF71A
:1022A00007FD02230A2200211846FFF701FD10BD99
:1022B000094800684FF4807007490860704710B5FE
:1022C000022208210020FFF72CFD02231722002103
:1022D0000846FFF7EDFC10BD1404014045F25552CD
:1022E0002F4B1A601A46506091604AF6AA221A6073
:1022F0004CF6CC421A6070474AF6AA20284908607A
:10230000704770B506460C4615462648C06940F42D
:1023100000602449C8612448007830402249087090
:102320002248006840EAC510204908600846006855
:102330004FF6807108401D49086008460068204338
:102340000860081F00681849097808431749091FE1
:1023500008600846006840F0800008600223002200
:1023600003211846FFF7A4FC00201049091D08604E
:10237000081F006840F40070091F086070BD00F07D
:102380007F010A4A121F1160704700B506480078A5
:10239000FFF7F5FF00200549091D086000BD00009A
:1023A00000300040001002403D000020042C00409E
:1023B000C5480088C448008820F00100C249088050
:1023C000704770B505460C46C048C06940F0020031
:1023D000BE49C861BC481C300580001F0480BA4853
:1023E000001F008840F00100B749091F0880B64867
:1023F0001038008840F00100B349103908800223EA
:102400001D2203210120FFF753FC70BDAF4AD269A2
:1024100042F00202AD4BDA611A46926942F00802BC
:102420009A61AB4A126822F47002A94B1A601A46EC
:10243000126842F430021A60A44A926942F0010222
:10244000A24B9A61A34A526822F44062A14B5A609F
:102450001A46526842F400625A609B4A1C3210804D
:10246000121F1180984A0832128842F4E042964BBB
:1024700008331A801A46128842F400621A80924A7F
:102480001032128842F010028F4B10331A80DA1388
:102490008D4B103B1A801A46128842F001021A80B6
:1024A00070478A4AD26942F00802884BDA611A46BC
:1024B000926942F004029A61874A126822F00F0280
:1024C000854B1A601A46126842F008021A60824A66
:1024D0000C321268804B0C331A60804A1080121F35
:1024E00011807E4A143A128842F001027B4B143B61
:1024F0001A801A4612881A801A4612881A80774A59
:102500000C3A1288754B0C3B1A801A46128842F01E
:1025100001021A80714A203A128842F002026F4B7F
:10252000203B1A801A46128842F001021A806B4A38
:102530002C3A128842F00102684B2C3B1A807047FB
:1025400066491C3908886649097811F0800F4ED118
:1025500010F0010F1AD06249097811F0400F15D020
:102560005F49097801F03F013F290AD15C490978A8
:1025700041F080015A4A11704FF6FF71594A11809B
:1025800004E057490978491C554A117010F0020FB0
:102590002DD05349097811F0400F13D050490978D4
:1025A00041F080014E4A11704C49083109884D4A6A
:1025B00011804A490C39098821F00201474A0C3A36
:1025C000118014E00021464A1170464A11804449A6
:1025D000097841F04001424A117000213F4A083A0F
:1025E0001180111F098841F00201121F1180002182
:1025F0003A4A1C3A11807047344AD26942F00402C8
:10260000324BDA611A46926942F008029A61304A06
:10261000126822F07F422E4B1A601A46126842F06E
:1026200096421A60304A1080121F11802E4A143AC6
:10263000128842F070022C4B143B1A801A46128802
:1026400042F008021A80284A0C3A128842F002022C
:10265000254B0C3B1A801A46128842F001021A8060
:102660008022214B2C3B1A801A46128842F001022C
:102670001A80704710B51D48008A10F0010F07D06E
:102680001B4801781BA004F0E5FD002018490870E4
:102690001648008A20F001001449088210BD0B4A38
:1026A000D26942F01002094BDA61104A9085118517
:1026B000928942F001020D4B9A811A46128842F02B
:1026C00001021A8070470000100400400010024010
:1026D000000C014000000140000801402C0C0040AB
:1026E0003E000020400000202C0800400010004068
:1026F000420000206672616D653A25646670730D54
:102700000A000000F0B503460C461546642093FB12
:10271000F0F0C6B2642093FBF0F700FB1730C1B2B3
:10272000132E02DD01F16400C1B20846CF1701EBA0
:10273000977701EBA702072092FBF0F700FB172029
:1027400082B25719601EDFF854C41CF800003844E8
:1027500082B2CF1701EB9777BF10B1EB870703D198
:10276000032C01DA501E82B2072092FBF0F700FB27
:102770001720C0B2F0BD0146CA1701EB9272921049
:10278000B1EB820212D1642091FBF0F200FB121037
:1027900050B94FF4C87091FBF0F200FB121008B969
:1027A000012070470020FCE70120FAE70020F8E74D
:1027B00070B5002600240025F94806883604001D5F
:1027C00000880644F748B6FBF0F4F7480088A042BA
:1027D0003AD0F5490C8040F2B2750EE02846FFF77A
:1027E000CAFF30B1B4F5B77F02D3A4F5B77402E0E5
:1027F00006E0A4F26D14681C85B2B4F5B67FEDD87E
:1028000000BFEA488580002516E0E8498888FFF780
:10281000B2FF30B1012D04D11D2C01D31D3C09E0C4
:102820000CE0E348405DA04203D8E148405D241A33
:1028300000E003E0681C85B21C2CE6D200BF681CD7
:10284000DA498871601CC871D648B6FBF0F100FB0C
:1028500011644FF46160B4FBF0F0D44908704FF498
:102860006160B4FBF0F100FB11403C21B0FBF1F0E2
:10287000CE4948704FF46160B4FBF0F100FB1140A9
:102880003C21B0FBF1F201FB1200C84988700B46F5
:10289000DA7999799888FFF735FFC44908720020E2
:1028A00070BD2DE9F04F06460F4690469946DDE98A
:1028B00009AB002440F2B270864203DB40F63300DD
:1028C000864202DD0120BDE8F08F40F2B2750AE0D9
:1028D0002846FFF750FF10B1B648044401E0B6485F
:1028E0000444681C85B2B542F2DB781EC7B20025ED
:1028F00010E0AF48405D40F2A321484304EBC01410
:102900003046FFF738FF18B1012D01D1A548044426
:10291000681C85B2BD42ECDBA8F1010040F2A321A6
:10292000484304EBC014C9EB4910C0EB092004EB89
:102930000014CAEB0A1004EB80045C449F48C06991
:1029400040F080509D49C8610846C06940F0006071
:10295000C8619B48006840F48070994908609048BD
:102960001438008840F010008D49143908808C49D3
:10297000091D0C80200C091F088089481438008824
:1029800020F0100086491439088000BF84481438AC
:10299000008810F0200FF9D0FFF70AFF002092E71F
:1029A0001CB5002487480088A0F5A04150397DD08F
:1029B0008248C06940F080508049C8610846C069BB
:1029C00040F00060C8617E48006840F480707C4937
:1029D00008607A48006A40F4803078490862084606
:1029E000006A20F4803008620846006A40F0010066
:1029F000086204E0601CC4B20A20FFF71CF96F48AB
:102A0000006A10F0020F01D1FA2CF3DBFA2C01DB83
:102A100001201CBD6948006A40F480706749086263
:102A20000846006A40F40040086200BF5C48143861
:102A3000008810F0200FF9D000BF594814380088E2
:102A400010F0080FF9D056481838008840F00100FF
:102A500053491839088000BF51481438008810F0D5
:102A6000200FF9D04E481438008840F010004C492F
:102A7000143908800020091D088047F6FF70091DE1
:102A8000088000202E2110230122CDE9001006210C
:102A900040F2E270FFF705FF41481438008820F04B
:102AA00010003F491439088000BF00E00DE03C48A9
:102AB0001438008810F0200FF7D045F2500041493B
:102AC000088041A004F0C6FB18E000BF3448143869
:102AD000008810F0080FF9D031481838008840F00D
:102AE00001002F491839088000BF2D48143800888C
:102AF00010F0200FF9D037A004F0ACFB0223032222
:102B000000210846FFF7D4F8FFF752FE002080E7C7
:102B100000B523481438008810F0010F01D0FFF7EA
:102B200047FE1F481438008810F0020F11D01C48CF
:102B30001438008800201A49143908802048006899
:102B400040F008001E4908600846006840F0040094
:102B5000086013481438008840F6FA71084010499C
:102B60001439088000BF0E481438008810F0200F78
:102B7000F9D000BD2DE9F04705460E4617469846A8
:102B8000DDE9089A002340F2B270854203DB40F68B
:102B90003300854220DD0120BDE8F087BA7F0008C0
:102BA000182800408051010044000020A037002078
:102BB000C67F00080085E2018033E1010010024079
:102BC00000700040046C0040464952535420544960
:102BD0004D450A004F4B0A0040F2B2740AE020460D
:102BE000FFF7C9FD10B14648034401E045480344DE
:102BF000601C84B2AC42F2DB701EC6B2002410E04E
:102C00004148005D40F2A321484303EBC01328462E
:102C1000FFF7B1FD18B1012C01D13C480344601C01
:102C200084B2B442ECDB781E40F2A321484303EBAC
:102C3000C013C8EB4810C0EB082003EB0013C9EB2E
:102C4000091003EB800353443148C06940F08050C1
:102C50002F49C8610846C06940F00060C8612D482E
:102C6000006840F480702B4908602B48008840F0D1
:102C7000100029490880284920310B80180C091FB1
:102C800008802548008820F010002349088000BFF4
:102C90002148008810F0200FFAD00020BDE8F0870E
:102CA0001B49C96941F08051194AD1611146C9696E
:102CB00041F00061D1611749096841F48071154AFA
:102CC00011601549098841F01001134A1180111F44
:102CD000098841F00201121F11800F4A2032108032
:102CE000010C121F11800C49098821F010010A4AB9
:102CF000118000BF0849098811F0200FFAD07047F1
:102D00000085E2018033E101C67F000880510100A7
:102D100000100240007000400428004010B52D480B
:102D2000006840F004002B4908602B48C06840F45C
:102D3000FE702949C860FFF769F810BD70B500251D
:102D4000002413E02548006818B1681CC5B20024AF
:102D500005E0601CC4B2032C01DD002070BD1E2004
:102D6000FEF769FF642D01DB0120F7E7EAE710B504
:102D700001201B490860FFF7E1FF08B1FFF7CEFF14
:102D800010BD10B51448806940F0040012498861F4
:102D90000846806940F0010088611248006820F010
:102DA0000F00104908600846006840F008000860FD
:102DB000022200210846FEF7B4FFFFF7BFFF08B963
:102DC000FFF724F80223062219461846FEF770FF83
:102DD00010BD0000007000400010024000012142C0
:102DE0001404014000080140FA4908600021FA4A31
:102DF00011604FF00101F94AC2F88811704700B51F
:102E000003460120F64908601846FFF7EDFF00BDB4
:102E100000B503460120F24908601846FFF7E4FFB9
:102E200000BD00B503460020ED4908601846FFF7D5
:102E3000DBFF00BD30B505460C462846FFF7F1FF25
:102E40002046FFF7E5FF30BDF0B507460C461546B6
:102E50001E462A20FFF7E5FF380AFFF7D9FF38465C
:102E6000FFF7D6FF280AFFF7D3FF2846FFF7D0FF6A
:102E70002B20FFF7D6FF200AFFF7CAFF2046FFF7F7
:102E8000C7FF300AFFF7C4FF3046FFF7C1FF2C2011
:102E9000FFF7C7FFF0BD30B504460D462B4622466E
:102EA00029462046FFF7D0FFCE480088FFF7B0FF45
:102EB00030BD2DE9F04306460F46904600244546B6
:102EC0000320A0EB480948E03A1B91B2721B90B274
:102ED000FFF7E1FF3A1B91B2721990B2FFF7DBFFE7
:102EE0007A1991B2321B90B2FFF7D5FF3A1B91B21B
:102EF000721B90B2FFF7CFFF7A1B91B2321B90B2D8
:102F0000FFF7C9FF3A1991B2721990B2FFF7C3FFE8
:102F10007A1B91B2321990B2FFF7BDFF7A1991B2C4
:102F2000321990B2FFF7B7FF3A1991B2721B90B203
:102F3000FFF7B1FF641CB9F1000F03DAA000801D98
:102F4000814404E0601B80000A3081446D1E7A19C0
:102F500091B2321990B2FFF79EFFAC42B4DDBDE8EA
:102F6000F0832DE9FF4F84B081468A46002003900C
:102F700002900698A0EB09050798A0EB0A06CDF889
:102F80000490CDF800A0002D01DD012705E00DB96A
:102F9000002702E04FF0FF376D42002E02DD4FF0B8
:102FA000010806E016B94FF0000802E04FF0FF38C4
:102FB0007642B54201DD2C4600E034464FF0000B6E
:102FC00021E0009A91B2019A90B2FFF764FF039852
:102FD000284403900298304402900398A04205DDF3
:102FE0000398001B03900198384401900298A04276
:102FF00005DD0298001B02900098404400900BF100
:1030000001001FFA80FB601C8345DADD08B0BDE8D3
:10301000F08FF0B504460D4616461F462B46324645
:1030200029462046FFF79DFF3B462246294620467B
:10303000FFF797FF3B46324639462046FFF791FFA0
:103040003B46324629463046FFF78BFFF0BD2DE95F
:10305000F04704460D4616461F46DDF820A03B46C5
:10306000324629462046FFF7EFFEA8460EE0A1466D
:1030700006E05046FFF7CCFE09F101001FFA80F987
:10308000B145F6DD08F101001FFA80F8B845EEDD24
:10309000BDE8F08778B504460D46524800886E1C9E
:1030A000B3B2661CB2B26E1EB1B2661E0090B0B270
:1030B000FFF7CDFF78BD2DE9F84F05460E46914646
:1030C0009A46AB46474800880090E02D02DCB6F5F2
:1030D000987F01DDBDE8F88FA9F1200000F0FF091D
:1030E00006F10F03EA1D31462846FFF7ADFEBAF19F
:1030F000000F22D100241DE0002714E018F0010F7A
:1031000003D038490098088003E0374800883549E3
:10311000088034480088FFF77BFE4FEA6808681C87
:1031200085B2781CC7B2082FE8DB5D46701C86B2FA
:10313000601CC4B2102CDFDB16E0002412E0002774
:103140000CE018F0010F05D0321991B2EA1990B2D3
:10315000FFF7A1FE4FEA6808781CC7B2082FF0DB22
:10316000601CC4B2102CEADB1E490098088000BF26
:10317000B0E710B50246012000E050430B00A1F17A
:103180000104E1B2F9D110BD2DE9F04306468946AC
:1031900017461D46002419E0281B401EC1B20A2014
:1031A000FFF7E7FFB7FBF0F00A21B0FBF1F201FBFC
:1031B000120808F13001CAB2082101FB046188B28B
:1031C00000234946FFF777FF601CC4B2AC42E3DB43
:1031D000BDE8F0830C0C014088012242000022422D
:1031E00084012242601E00205E1E00202DE9F0476F
:1031F0000646894617461D464FF0000ABFB2002416
:103200002FE0281B401EC1B20A20FFF7B2FFB7FB18
:10321000F0F00A21B0FBF1F201FB1208BAF1000F45
:1032200011D1681EA0420EDDB8F1000F09D10821AE
:1032300001FB046188B2002320224946FFF73BFFCF
:103240000DE04FF0010A08F13001CAB2082101FB7C
:10325000046188B200234946FFF72DFF00BF601CC0
:10326000C4B2AC42CDDBBDE8F08770B5064640F293
:103270003F13EF2200210846FFF7E6FD00240BE094
:10328000002504E03046FFF7BAFD681C85B2B5F5AD
:10329000A07FF7DB601C84B2F02CF1DB70BD70B551
:1032A00005460E46144619E0E02D03DD002506F123
:1032B000100086B2B6F5987F06DD0020054606466A
:1032C0004FF47840FFF7D1FF22780023314628469B
:1032D000FFF7F1FE05F1080085B2641C2078002894
:1032E000E2D170BD10B5FA48806940F00800F84995
:1032F00088610846806940F010008861084680694E
:1033000040F020008861F348006820F47060F149C3
:1033100008600846006840F440700860ED480C30D2
:1033200000684FF6FA710840EA490C310860EA4833
:10333000006800F00F00E849086008460068E749A7
:103340000843E54908600846C06840F0FF00C860CF
:103350004FF03330E2490860091D0860E0480C3046
:1033600000684FF6FF710843DD490C310860012009
:10337000DC490860DC48D0F8980118BB00210846F9
:10338000FFF758FDD9A200210846FFF788FF002368
:103390001A4619461846FFF729FF00231A46194610
:1033A0001846FFF7F1FE00210846FFF773FE0023E1
:1033B0001A4619461846FFF72CFE00221146104601
:1033C000FFF777FD0120CA490860C749C1F88801A5
:1033D0004FF00000C74908604FF01400FEF72BFCC7
:1033E0000120C149C1F89C011420FEF724FC0020F3
:1033F000BC4908604FF0CF00FFF713FD0020FFF736
:1034000007FDC120FFF704FD3020FFF701FDED208F
:10341000FFF707FD6420FFF7FBFC0320FFF7F8FC34
:103420001220FFF7F5FC8120FFF7F2FCCB20FFF71D
:10343000F8FC3920FFF7ECFC2C20FFF7E9FC00201A
:10344000FFF7E6FC3420FFF7E3FC0220FFF7E0FC87
:10345000EA20FFF7E6FC0020FFF7DAFC0020FFF788
:10346000D7FCE820FFF7DDFC8520FFF7D1FC10201A
:10347000FFF7CEFC7920FFF7CBFCC020FFF7D1FC93
:103480002320FFF7C5FCC120FFF7CBFC1120FFF77D
:10349000BFFCC220FFF7C5FC1120FFF7B9FCC52017
:1034A000FFF7BFFC3D20FFF7B3FC3020FFF7B0FC77
:1034B000C720FFF7B6FCAA20FFF7AAFC3A20FFF7C7
:1034C000B0FC5520FFF7A4FC3620FFF7AAFC08202B
:1034D000FFF79EFCB120FFF7A4FC0020FFF798FC4B
:1034E0001120FFF795FCB620FFF79BFC0A20FFF7A1
:1034F0008FFCA220FFF78CFCF220FFF792FC00204B
:10350000FFF786FCF720FFF78CFC2020FFF780FCFC
:10351000F120FFF786FC0120FFF77AFC3020FFF74F
:1035200077FC2620FFF77DFC0120FFF771FCE020EF
:10353000FFF777FC0F20FFF76BFC3F20FFF768FCDD
:103540002F20FFF765FC0C20FFF762FC1020FFF72F
:103550005FFC0A20FFF75CFC5320FFF759FCD520E5
:10356000FFF756FC4020FFF753FC0A20FFF750FC02
:103570001320FFF74DFC0320FFF74AFC0820FFF75C
:1035800047FC0320FFF744FC0020FFF741FCE1204B
:10359000FFF747FC0020FFF73BFC0020FFF738FC5B
:1035A0001020FFF735FC0320FFF732FC0F20FFF758
:1035B0002FFC0520FFF72CFC2C20FFF729FCA22074
:1035C000FFF726FC3F20FFF723FC0520FFF720FC38
:1035D0000E20FFF71DFC0C20FFF71AFC3720FFF729
:1035E00017FC3C20FFF714FC0F20FFF711FC112003
:1035F000FFF717FC5020FEF71EFB2920FFF711FCF8
:103600006420FEF718FB10BD2DE9F04307468846FD
:103610001446394E08F11F0307F11F024146384690
:10362000FFF712FC06EBC4164FF0000918E0002566
:103630000FE030780121A940084204D02F480088CB
:10364000FFF7E6FB03E02E480088FFF7E1FB681C6C
:10365000C5B2082DEDDB761C09F1010000F0FF0971
:10366000B9F1800FE3DBBDE8F0832DE9F0430646B6
:1036700088461746234D08F1170306F11702414605
:103680003046FFF7E1FB07EBC70005EBC0054FF045
:10369000000918E000240FE028780121A140084229
:1036A00004D016480088FFF7B3FB03E014480088F5
:1036B000FFF7AEFB601CC4B2082CEDDB6D1C09F1FA
:1036C000010000F0FF09B9F1480FE3DBBDE8F0832A
:1036D0000010024000140140001001403033333329
:1036E000000C01409801224200002242200000000C
:1036F000940122429C012242DE100020601E002024
:103700005E1E0020460000202DE9F0430646884654
:1037100017464A4D08F1170306F117024146304695
:10372000FFF792FB07EBC70005EBC0054FF0000960
:1037300018E000240FE028780121A140084204D0BD
:103740003F480088FFF764FB03E03E480088FFF72E
:103750005FFB601CC4B2082CEDDB6D1C09F101009D
:1037600000F0FF09B9F1480FE3DBBDE8F0832DE974
:10377000FF4F84B081468A4600200390029006984D
:10378000A0EB09050798A0EB0A06CDF80490CDF848
:1037900000A0002D01DD012705E00DB9002702E0A2
:1037A0004FF0FF376D42002E02DD4FF0010806E0BA
:1037B00016B94FF0000802E04FF0FF387642B542EC
:1037C00001DD2C4600E034464FF0000B21E0009A6A
:1037D00091B2019A90B2FFF75DFC039828440390E0
:1037E0000298304402900398A04205DD0398001B24
:1037F00003900198384401900298A04205DD029898
:10380000001B02900098404400900BF101001FFA49
:1038100080FB601C8345DADD08B0BDE8F08F10B591
:10382000014601F47800020A01F47C404309C1F327
:10383000C40442EA0300204310BD0000660A0020D1
:10384000601E00205E1E0020FB480068C0B270476A
:103850000120FA490860FA49C1F89001F949086065
:10386000F749C1F89001704700210022F64B1A6019
:1038700000BF12E0C211F34B1A604FEA40624FEAF8
:1038800012604FF00002EE4BC3F890214FF001029E
:10389000ED4B1A6001F10102D1B20829EADB704751
:1038A0000021002000BF12E04FF6FF7202EA400044
:1038B0000122E54B1A604FF00002E14BC3F8902162
:1038C000E24A12680AB140F001004A1CD1B20C2948
:1038D000EADB704730B504460020D849086020462E
:1038E000FFF7C2FF0120D649C1F890010020D64958
:1038F0000860FFF7D5FF05460120D149C1F89401C2
:10390000284630BD2DE9FC4180460026002406E013
:103910004046FFF7DFFF2DF81400601C84B2032C33
:10392000F6DB002416E0601C85B20FE03DF81400C1
:103930003DF81510884207DD3DF814703DF815007C
:103940002DF814002DF81570681C85B2032DEDDBE1
:10395000601C84B2022CE6DB0026012405E03DF861
:103960001400304486B2601C84B2022CF7DB374668
:103970003846BDE8FC81F0B504460D46D020FFF77F
:10398000C1FF06469020FFF7BDFF0746642E01DB0E
:10399000642F01DA0020F0BD26802F800120FAE795
:1039A0007FB504460D4602A903A8FFF7E4FF0646CB
:1039B00016B9002004B070BD694601A8FFF7DBFF0F
:1039C00006460EB90020F5E7BDF80400BDF80C105E
:1039D000884206DCBDF80C10BDF8040014308142AA
:1039E0000CDBBDF80C00BDF80410884230DCBDF8DB
:1039F0000410BDF80C001430814229DABDF8000033
:103A0000BDF80810884206DCBDF80810BDF80000BB
:103A1000143081420CDBBDF80800BDF8001088426C
:103A200016DCBDF80010BDF80800143081420FDA32
:103A3000BDF80C00BDF80410084440102080BDF80B
:103A40000800BDF800100844401028800120B1E7AC
:103A50000020AFE71CB500241FE000BF7C49881E92
:103A6000FFF79EFF0028F9D00A20FEF7E4F800BF18
:103A7000694601A8FFF794FF0028F9D07448801E1A
:103A80000088BDF80410884207D17148801E408824
:103A9000BDF80010884200D10124002CDDD0204662
:103AA0001CBD70B504460D4604F10D018AB21939EA
:103AB00088B22B462946FFF754FA05F10D0083B270
:103AC000193881B222462046FFF74BFA6A1C91B2A0
:103AD000621C90B2FFF7DFF96A1C91B2621E90B2CD
:103AE000FFF7D9F96A1E91B2621C90B2FFF7D3F9C1
:103AF0006A1E91B2621E90B2FFF7CDF970BD10B58B
:103B000000245349881EFFF74BFF002848D00124AA
:103B10004F48801E00884F49098888420DDD4C4877
:103B2000801E00884B490988401A4FF47A71484337
:103B300049490988B0FBF1F00CE04548801E008837
:103B400044490988081A4FF47A7148434249098860
:103B5000B0FBF1F0414908803D48801E4088404953
:103B6000098888420DDD3A48801E40883C49098812
:103B7000401A4FF47A7148433A490988B0FBF1F092
:103B80000CE03348801E408835490988081A4FF4F4
:103B90007A71484333490988B0FBF1F02F494880D6
:103BA000204610BD2DE9F04F8FB0002600BF1F202A
:103BB0002D4908804FF6FF702C490880FFF755FB10
:103BC0004FF47840284908804FF6FF70FFF74DFB0F
:103BD00032210846FFF765FFFBE21748006800281E
:103BE0007ED1FFF737FF68B11948801E008804A90D
:103BF00041F836001648801E408801EBC601486037
:103C0000701CC6B2012E06D0022E31D0032E3FD03A
:103C1000042E0FD14CE04FF6FF70FFF726FB00BFDC
:103C2000054800680028FBD04FF032014FF0BD007E
:103C3000FFF737FFCBE200001C0121429401214233
:103C40000000214298012142900121420C012142B1
:103C50006C1E0020661E0020621E00206E1E0020CA
:103C6000681E0020641E0020601E00205E1E0020D2
:103C70004FF6FF70FFF7F9FA00BFFE480068002812
:103C8000FBD040F20D114FF03200FFF70AFF9EE229
:103C90004FF6FF70FFF7E9FA00BFF648006800280A
:103CA000FBD040F20D114FF0BD00FFF7FAFE8EE29F
:103CB0004FF6FF70FFF7D9FA00BFEE480068002802
:103CC000FBD00499069888420BD906990498081AE3
:103CD000401C4FF47A7148438C21B0FBF1F00AE0AC
:103CE00076E206990498401A401E4FF47A714843D0
:103CF0008C21B0FBF1F0039003F09AFF0746049982
:103D00000698884210D9DC49384603F0D9FFDB49D0
:103D1000009003F0ABFE0290049803F089FF01903D
:103D2000029904F0D5F80FE0D349384603F0C8FFF4
:103D3000D249009003F09AFE0290049803F078FFB5
:103D40000190029903F024FE039003F051FF1FFA43
:103D500080FB0599099888420AD905990998401A63
:103D6000401E4FF47A714843DC21B0FBF1F009E0CA
:103D700005990998081A401E4FF47A714843DC21CE
:103D8000B0FBF1F0039003F053FF814605990998C9
:103D9000884210D9B849484603F092FFB7490090CD
:103DA00003F064FE0290059803F042FF019002992F
:103DB00004F08EF80FE0B049484603F081FFAF49A8
:103DC000009003F053FE0290059803F031FF01903C
:103DD000029903F0DDFD039003F00AFF80B20D901D
:103DE00008990A9888420AD908990A98401A401CEA
:103DF0004FF47A7148438C21B0FBF1F009E0089947
:103E00000A98081A401E4FF47A7148438C21B0FB7F
:103E1000F1F0039003F00CFF804608990A9888425D
:103E200010D99549404603F04BFF9449009003F0A8
:103E30001DFE0290089803F0FBFE0190029904F029
:103E400047F80FE08C49404603F03AFF8B49009059
:103E500003F00CFE0290089803F0EAFE019002992C
:103E600003F096FD039003F0C3FE80B20E900B9911
:103E7000079881420AD90B990798081A401E4FF4F7
:103E80007A714843DC21B0FBF1F009E007990B9807
:103E9000081A401E4FF47A714843DC21B0FBF1F060
:103EA000039003F0C5FE82460B990798814210D912
:103EB0007149504603F004FF7049009003F0D6FDAD
:103EC0000290079803F0B4FE0190029904F000F804
:103ED0000FE06949504603F0F3FE6849009003F093
:103EE000C5FD0290079803F0A3FE0190029903F02C
:103EF0004FFD039003F07CFE80B20C9041463846A3
:103F000003F0AAFF08D25D49404603F041FD39465F
:103F1000039003F0A1FE29D34146384603F09CFEEE
:103F200008D25649404603F0D3FF3946039003F0C8
:103F300093FF1BD35146484603F08EFF08D24F49EA
:103F4000504603F025FD4946039003F085FE0DD34E
:103F50005146484603F080FE12D24849504603F0CD
:103F6000B7FF4946039003F077FF09D200264FF6CA
:103F7000FF70FFF77AF932210846FFF792FD28E13A
:103F80004146384603F004FD4FF08041029003F0B3
:103F90006DFD039003F02CFE3949088051464846D8
:103FA00003F0F6FC4FF08041029003F05FFD0390B8
:103FB00003F01EFE334908800E990BEB010000EB65
:103FC000D071C1F34F01304A1180DDE90C2188180E
:103FD00000EBD071C1F34F012C4A11804FF6FF70F6
:103FE000FFF743F900202A4908801F20294908804B
:103FF0000024322528A229462046FFF750F928340C
:10400000384603F0F5FD0423024629460390204676
:10401000FFF7ECF80024143521A229462046FFF7CB
:104020003EF92834484603F0E3FD042302462946BE
:1040300003902046FFF7DAF8002414351AA2294627
:104040002046FFF72CF9283404235A4629462046F7
:10405000FFF7CCF80024143515A229462046FFF7B7
:104060001EF928340423294620460D9AFFF7BEF88E
:10407000642421E01C0121420000484200007A44EF
:10408000621E0020641E0020661E0020681E0020A4
:10409000601E00205E1E00205658313A00000000CD
:1040A0005679313A00000000434858313A00000088
:1040B000434859313A00000032256EA22946204675
:1040C000FFF7EDF82834404603F092FD0423024642
:1040D000294603902046FFF789F86424143567A227
:1040E00029462046FFF7DBF82834504603F080FDD0
:1040F00004230246294603902046FFF777F86424FC
:10410000143560A229462046FFF7C9F82834042355
:10411000294620460E9AFFF769F8642414355BA2FD
:1041200029462046FFF7BBF82834042329462046B9
:104130000C9AFFF75BF83224962556A229462046B2
:10414000FFF7ADF828340423534802882946204657
:10415000FFF74CF83224143550A229462046FFF7C9
:104160009EF8283404234E48028829462046FFF74B
:104170003DF8322414354BA229462046FFF78FF82C
:10418000283404234948028829462046FFF72EF8A0
:104190003224143546A229462046FFF780F82834F9
:1041A00004234548028829462046FFF71FF81E24AD
:1041B0001E3542A229462046FFF771F8FFF74AFC58
:1041C0004FF6FF70FFF751F80FB0BDE8F08F00BF5A
:1041D00000BF02E570B500210C460D4635E04148B0
:1041E000006810BB00242546FFF789FC68B33EA297
:1041F000FA210A20FFF753F83C4802880423FA21E9
:104200001E20FEF7F3FF3AA2FA21B420FFF747F889
:10421000364842880423FA21C820FEF7E7FF354AD2
:1042200051881088FEF736FF0FE00022324B2046FF
:10423000294603F049F904460D4600222F4B20463B
:10424000294603F085FA00D270BDC8E72C48806982
:1042500040F004002A4988612A480068C0F30B0036
:10426000284908600846006827490843254908602E
:10427000704700005658323A000000005679323A32
:1042800000000000434858323A00000043485932C9
:104290003A00000056583A00621E002056793A0053
:1042A000641E00204348583A00000000661E0020AB
:1042B0004348593A00000000681E002041646A75B6
:1042C0007374204F4B212020546F75636820416E1A
:1042D00079776865726520546F20436F6E74696EDC
:1042E000756500001C012142583A00006A1E00203A
:1042F000593A00006E1E00200000F03F00BDEF4064
:104300000010024000080140008033837CB5002586
:1043100014E06946284602F0D8F9064666B9F8481E
:1043200050F8254044B1012C06D0D4E9020100EB3D
:10433000810060640198A064681CC5B23F2DE8D973
:104340007CBD002400BF02E0642002F0C7FAED4803
:1043500000780028F8D0EC4800686421B0FBF1F048
:10436000E94908600846006828B90020E749087054
:10437000FF2002F0ECF900BF02F010FF0446E44811
:104380000068E44908600020E1490860204602F026
:1043900009FFE0480068DC490968B0FBF1F0C0F1B2
:1043A0006400DA49087002F097FEFFF7AFFF322091
:1043B00002F094FAE0E700B587B0032000218022E4
:1043C000D54BCDE90132CDE903104FF6FE703E2307
:1043D000D24A0090AFF2950001F08CFF06AAD0A15E
:1043E0003E2002F0F1F807B000BD002400BF00BF7E
:1043F00002F0D4FE0446C6480068401CC449086068
:10440000204602F0CFFE02F066FEF1E700B587B06D
:10441000032000218022C64BCDE90132CDE90310F3
:104420004FF6FF703F23C34A0090AFF2410001F006
:1044300061FF06AAC0A13F2002F0C6F807B000BD88
:1044400004E0002200F8012B4A1E91B20029F8D1A5
:10445000704770B5C821BC48FFF7F2FF00230FE09A
:10446000581C85B203EB8300B74901EB800405EBD0
:10447000850001EB8006002020706660581C83B226
:10448000092BEDD303EB8300AF4901EB800400203F
:10449000207060600846AD49086070BD70B54FF48B
:1044A0007C71AB48FFF7CCFF4FF480719448FFF765
:1044B000C7FF002413E0601CC5B2C4EBC40000EBCE
:1044C0004000A34901EB8003C5EBC50000EB4000B1
:1044D00001EB80065E619FA0D864601CC4B20B2C07
:1044E000E9D3C4EBC40000EB4000994901EB800321
:1044F0000020586197A0D86400209749086094482C
:104500009649086070BD0021954A1170002004E0B2
:104510000021944A1154411CC8B20828F8D3002144
:10452000914A1170914A1170914A1160914A11603B
:1045300070470020904908609049087090490870C1
:104540009049087090490870904908607049086067
:10455000704908606C4908606A490870704710B576
:1045600002F0B2FDFFF7E5FFFFF7CDFFFFF796FF83
:10457000FFF76FFF00F001FF01F0DDFBFFF746FFE3
:10458000FFF719FF02F034FD02F0A2FD10BD7E48D6
:104590000078012808D179480078FF2804D27748AC
:1045A0000078401C75490870704779496C4A127848
:1045B000885C6C49095C764A515C01EBC0016B4A2E
:1045C0001170704710B500246F480078012830D171
:1045D00002F0E4FD04466948007820B1674800789D
:1045E000401E6649087065480078F8B9644800784C
:1045F000E0B9FFF7DAFF42485C49097850F821003A
:104600005B490860594800785749097888420DD0BD
:1046100057480068806B401C5549096888635B48AF
:104620000068401C5949086002F0D7FD204602F09E
:10463000B9FD10BD10B5002453480078012811D1F0
:1046400002F0ACFD04464D48007840B94C48007873
:10465000FF2804D24A480078401C49490870204687
:1046600002F0A0FD10BD10B5002402F097FD044635
:1046700042480078F8B942480078E0B9FFF795FF62
:104680001F483A49097850F82100394908603748ED
:1046900000783549097888420DD035480068806B2C
:1046A000401C33490968886338480068401C374912
:1046B000086002F08BFD204602F074FD10BD10B5BD
:1046C00000243148007801286FD102F067FD0446CC
:1046D0002B48007880B12A480078401E284908708D
:1046E0000846007848B92548007838B9204602F0D5
:1046F00059FDFFF7B8FF58E054E04FE04AE00000F2
:10470000C43C00208C1E0020841E0020801E00203F
:104710009C1E0020881E0020C4380020C03A0020C3
:1047200075432F4F532D4949205374617400000085
:10473000C43A0020C03C002075432F4F532D4949F7
:104740002049646C65000000AC370020781E002012
:10475000C43D00203F000000AC1E0020A41E00202D
:10476000911E0020921E00208F1E0020901E00200F
:10477000A81E0020A01E0020B81E00208D1E0020B4
:104780008E1E00209B1E00209A1E0020741E0020FA
:10479000D27F0008204602F005FD06E0204602F028
:1047A00001FD02E0204602F0FDFC10BD10B5F2480C
:1047B000007890B9FFF7F9FEF0480078F0490870EA
:1047C000F048EE49097850F82100EF4908600846A2
:1047D0000068EE49086002F0E8FC10BD10B5002446
:1047E000022002F07BF802F0D9FC04460020E849E0
:1047F0000860204602F0D6FC322002F06FF802F08A
:10480000CDFC0446E2480068E24908600120E24924
:104810000870204602F0C6FC10BD70B5002602F0FC
:10482000ABFC02F0BBFC0646DC480068401CDB49E0
:104830000860304602F0B6FCCF480078012857D116
:10484000D748007820B1012804D0022809D103E01C
:1048500001250BE0002509E001250120D049087061
:1048600004E001250020CE49087000BF00BF05B953
:1048700070BDCC48046837E002F090FC0646E06A60
:1048800070B3E06A401EE062E06A48BB94F8300012
:1048900010F0370F09D014F8300F00F0C800207066
:1048A00001206070A4F1300402E0002084F831009F
:1048B00094F8300010F0080F12D104F13404A078FD
:1048C000B949097840EA0100B74908702078B7492A
:1048D000085C617840EA010014F83419B34A505476
:1048E0006469304602F05EFC94F832003F28C3D180
:1048F00000BFBDE740F223107047704710B590F835
:10490000342001F10B039B5C90F83540A34301F187
:104910000B04A35423469B5C23B98B7A90F8364052
:10492000A3438B7210BD2DE9F04F05460F4690460C
:104930009946A87A9E490E5C05F10B00805D11F83E
:1049400000B00BEBC60000F0FF0A8E4850F82A407A
:10495000002004F12004E0602760207C20EA0800A9
:10496000207484F81190207CA4F1200410F0080F2A
:104970000DD194F836008C49097808438A490870AB
:104980008A48805D94F8351008438849885529463F
:104990002046FFF7B3FF5046BDE8F08F10B57B4AC5
:1049A0001268D061794A126892F8343000F10B0233
:1049B000D25C764B1B6893F835301A43734B1B68F7
:1049C00093F8344000F10B031A55827A6F4B1B6841
:1049D00093F836301A4382726C4A126892F8341097
:1049E000724A525C694B1B6893F835309A436F4B9F
:1049F0005A541A46525C42B9644A126892F83630E8
:104A0000694A12789A43684B1A7010BD0146002219
:104A10008A72002005E0002301F10B021354421CAE
:104A2000D0B20828F7D3704705E011F8013B00F831
:104A3000013B531E9AB2002AF7D17047014600206D
:104A400002E0491C421CD0B20A78002AF9D1704712
:104A50002DE9F84F05460F4690469946DDE90AAB29
:104A60000020009002F09AFB009052480468002C4D
:104A70007CD004F1180454F8040C4E4908600098E6
:104A800002F090FB44F8187CA57600202076607632
:104A9000606144F814BC44F80CAC44F8108C0C98D9
:104AA00024F8080C24F8069C0020E077E810207712
:104AB00005F00700E076217F01208840A077E17EA5
:104AC00001208840607700206060E060A060206284
:104AD000A0626062E0622063AFF288306063A4F19C
:104AE00018044FF0000606E0002104F1500040F8E1
:104AF0002610701CC6B2002EF6D0204602F03BFBFA
:104B0000204602F0E6FA02F049FB00901D4840F80A
:104B100025402448006860610020A06121480068A9
:104B200010B12048006884611E48046004F1340418
:104B3000A0781D49097840EA01001B4908702078D7
:104B40001A49085C617840EA010014F83419174AE0
:104B500050541948007800F1010017490870009876
:104B600002F020FB0020BDE8F88FFFE7009802F07C
:104B700019FB4220F7E700009A1E0020901E00203B
:104B80008F1E0020C43C0020A81E0020A01E002074
:104B90009C1E0020841E00208C1E0020B81E0020B9
:104BA000B01E0020AC1E0020911E0020921E00208E
:104BB000D27F0008A41E00209B1E00202DE9F05F7C
:104BC00004460F4691461E464FF0000B20780528FC
:104BD00004D0012030700020BDE8F09F09F0800A69
:104BE000BAF1000F04D029F080094FF0010801E06C
:104BF0004FF000080020307002F0D0FA8346B9F17F
:104C0000000F2CD0B9F1010F3BD0B9F1020F03D046
:104C1000B9F1030F46D111E0208900EA0705BD4232
:104C200006D1B8F1010F05D12089A843208101E008
:104C300070203070584602F0B5FA3AE0208900EA58
:104C4000070535B1B8F1010F05D12089A8432081AE
:104C500001E070203070584602F0A4FA29E0208963
:104C600027EA0005BD4206D1B8F1010F05D1208920
:104C70002843208101E070203070584602F092FAFB
:104C800017E0208927EA000535B1B8F1010F05D1F9
:104C900020892843208101E070203070584602F0BE
:104CA00081FA06E0584602F07DFA00256F20307048
:104CB00000BF00BF28468FE72DE9F04106460D46AC
:104CC0000027FD48007820B1102028700020BDE8A2
:104CD000F08102F063FA0746F848046884B100687E
:104CE0004068F64908600520207026810020606039
:104CF000F3A0E060384602F055FA0020287004E086
:104D0000384602F04FFA722028702046DFE730B5AF
:104D100001464A6808682AB9CC68606028B1002555
:104D2000456002E0106000B142608B6800255D6262
:104D300030BDF0B506460F46B468002004F12804E3
:104D400060602780207A00F0DF0020724FF00000C2
:104D50006072207AA4F12804A8B904F13404A07880
:104D6000D849097840EA0100D64908702078D64928
:104D7000085C617840EA010014F83419D24A5054B2
:104D80004FF0010500E000253046FFF7C0FF284640
:104D9000F0BD2DE9F0470446894615464FF0000A5C
:104DA000C548007820B10F2028702046BDE8F08764
:104DB0002078052803D0012028702046F6E702F06D
:104DC000EDF98246606808B1012700E00027B9F1DB
:104DD000000F03D0B9F1010F3CD119E08FB9B8A091
:104DE000E06000202070B5480068606000202081ED
:104DF000B2480460504602F0D5F900202870002621
:104E000005E0504602F0CEF949202870264628E0F9
:104E1000D4F8048005E000214046FFF78AFFD8F867
:104E20000080B8F1000FF6D1A5A0E060002020704E
:104E3000A2480068606000202081A04804605046BD
:104E400002F0B0F9012F01D1FFF70DFC002028700E
:104E5000002606E0504602F0A5F9072028702646F5
:104E600000BF00BF3046A1E72DE9F04105460E46E0
:104E7000144600279048007820B1112020700020AF
:104E8000BDE8F08102F08AF907462878052806D0A7
:104E9000384602F087F9012020700020F0E7E8682A
:104EA00030603068FFF7CAFD8046384602F07AF974
:104EB000002020704046E3E72DE9F04105460E460C
:104EC000144600277C48007818B112202070BDE8F5
:104ED000F08102F063F907462878052805D03846A6
:104EE00002F060F901202070F1E7EE60384602F030
:104EF00059F90020207000BFE9E7F0B51446059E7F
:104F0000724F3F6897F8307047F02007DFF8BCC158
:104F1000DCF800C08CF830700027DFF8B0C1DCF896
:104F200000C08CF83170694F3F68FE62674F3F6880
:104F300079620C828B74654F3F688F6047680F60A1
:104F400000274F60C860456805B1696041605F4FE8
:104F50003F6897F834205C4FBF5CDFF870C1DCF825
:104F600000C09CF835C027EA0C07DFF85CC10CF8DC
:104F700002706746BF5C5FB9544F3F6897F836C010
:104F8000504F3F7827EA0C07DFF838C18CF80070E3
:104F9000F0BD2DE9F04F89B005460F4691469A467F
:104FA000129E002002904448007828B10220307000
:104FB000002009B0BDE8F08F4548007818B10D20F9
:104FC00030700020F5E72878052803D001203070E4
:104FD0000020EEE709F0800BBBF1000F04D009F0D0
:104FE0007F094FF0010801E04FF0000802F0D6F809
:104FF0000290B9F1000F4AD0B9F1010F78D0B9F1A0
:10500000020F03D0B9F1030F71D120E0288900EA23
:105010000704BC420FD1B8F1010F02D12889A04387
:1050200028812A4800680485029802F0BBF8002015
:1050300030702046BDE74B463A4604A92846CDF8D5
:1050400000A0FFF75AFF029802F0ACF878E0288938
:1050500000EA07047CB1B8F1010F02D12889A0430E
:1050600028811A4800680485029802F09BF8002005
:10507000307020469DE74B463A4604A92846CDF8B5
:1050800000A0FFF73AFF029802F08CF858E0288958
:1050900027EA0004BC421ED1B8F1010F02D12889D1
:1050A00020432881094800680485029802F07AF8B4
:1050B0000020307020467CE78D1E00207C1E0020E2
:1050C0003F000000911E0020921E0020A01E002024
:1050D0008E1E00200CE04B463A4604A92846CDF827
:1050E00000A0FFF70AFF029802F05CF828E01FE03A
:1050F000288927EA00047CB1B8F1010F02D1288980
:1051000020432881B04800680485029802F04AF8DC
:105110000020307020464CE74B463A4604A928460A
:10512000CDF800A0FFF7E9FE029802F03BF807E097
:10513000029802F037F800246F203070204638E7DC
:1051400000BFFFF790FA02F029F802909E4800682D
:1051500090F8310020B39C48006890F8310003902B
:1051600000209949096881F8310004A8FFF7CFFDB4
:1051700000209549096881F83000029802F012F881
:1051800000240398012805D0022802D10E20307097
:1051900003E000BF0A20307000BF00BF204608E7D0
:1051A00089480068048DB8F1010F1ED1B9F1000FD4
:1051B0000ED0B9F1010F0CD0B9F1020F03D0B9F143
:1051C000030F0AD100E000BF2889A04328810BE02B
:1051D00000BF28892043288106E0029801F0E2FF01
:1051E0006F2030700020E4E600BF029801F0DAFF83
:1051F000002030702046DCE670B5002501F0CEFFBF
:10520000054671480068048D284601F0CBFF204612
:1052100070BD2DE9FC5F0446894692461E4600207B
:1052200000902078052804D0012030700020BDE8CF
:10523000FC9F01F0B3FF0090BAF1000F03D0BAF168
:10524000010F0AD104E0208920EA090020810BE047
:10525000208940EA0900208106E0009801F0A2FFC1
:10526000712030700020E2E700BF4FF0000B65684E
:1052700055E0A87C40B3012838D0022802D003288A
:1052800044D111E02089298A00EA0107288AB8421E
:1052900009D139462846FFF74CFD8046B8F1010F89
:1052A00001D14FF0010B38E02089298A00EA01077B
:1052B0004FB139462846FFF73CFD8046B8F1010F53
:1052C00001D14FF0010B28E0288A218920EA01074B
:1052D000288AB84209D139462846FFF72AFD804678
:1052E000B8F1010F01D14FF0010B16E0288A218996
:1052F00020EA01074FB139462846FFF71AFD8046DC
:10530000B8F1010F01D14FF0010B06E0009801F058
:1053100049FF6F203070002089E700BF2D68002D05
:10532000A7D1009801F03EFFBBF1010F01D1FFF7BB
:105330009AF901F033FF009020890190009801F064
:1053400031FF00203070019871E72DE9F0410446EB
:105350000D4600272078052804D001202870002061
:10536000BDE8F08101F01AFF07462689384601F0B2
:1053700019FF002028703046F2E72DE9F041502156
:105380001248FFF75DF800250EE0681C86B20F4852
:1053900000EB051400EB0617002020706760AFF2E9
:1053A000E020E060681C85B2042DEED3074800EBD6
:1053B0000514002020706060AFF2FC20E06003481C
:1053C00003490860BDE8F081A01E00207438002069
:1053D0007C1E002070B5044600262078012801D0EC
:1053E000002070BD01F0DAFE0646656800206060AE
:1053F000304601F0D7FE2846F3E770B50546002693
:10540000E348007808B1002070BD01F0C7FE0646F1
:10541000E0480468006820B1DE4800684068DD4963
:105420000860304601F0BEFE3CB101202070002033
:10543000208165602046FFF7E9FA2046E4E72DE980
:10544000F0470446884615464FF0000920780128A9
:1054500004D0012028702046BDE8F087CC480078B1
:1054600018B10F2028702046F6E701F097FE81461C
:10547000A07A08B1012700E00027B8F1000F03D09F
:10548000B8F1010F35D117E07FB900202070C14875
:105490000068606000202081BE480460484601F03A
:1054A00081FE00202870002605E0484601F07AFEC3
:1054B00049202870264623E005E0002302221946F1
:1054C0002046FFF730FAA07A0028F6D12070B148C4
:1054D0000068606000202081AE480460484601F00A
:1054E00061FE012F01D1FFF7BEF8002028700026D1
:1054F00006E0484601F056FE07202870264600BF09
:1055000000BF3046A8E72DE9F04105460F46144696
:105510004FF000082878012804D0012020700020D6
:10552000BDE8F0819A48007818B102202070002070
:10553000F6E79948007818B10D2020700020EFE7B9
:1055400001F02CFE80466E6846B10020686040463F
:1055500001F028FE002020703046E1E78F48006807
:1055600090F8300040F002008C49096881F8300062
:1055700000208A49096881F8310088480068C762BC
:105580002846FFF70BFA404601F00CFEFFF76BF8D8
:1055900001F004FE80468148006890F8310020B197
:1055A00001280DD002280AD105E07C480068066A6F
:1055B000002020700DE000260E20207009E000BFC2
:1055C000294676480068FFF799F900260A202070DE
:1055D00000BF00BF00207149096881F830006F49A1
:1055E000096881F831006D490968C8616B4909682B
:1055F0000862404601F0D6FD304691E72DE9F041C2
:1056000004460F4615464FF000082078012804D0C4
:10561000012028700020BDE8F08101F0BFFD804628
:10562000A07A18B300267FB1012F0CD107E0022326
:105630001A4600212046FFF776F9701CC6B2A07A00
:105640000028F4D108E000BF02231A4600212046BA
:10565000FFF769F9761C00BF00BF404601F0A2FDCC
:10566000FFF701F80E2028703046D4E7404601F0DD
:1056700099FD0020287000BFCDE770B504460D46A7
:1056800000262078012801D0012070BD01F086FDA0
:105690000646A07A60B10023022229462046FFF781
:1056A00042F9304601F07EFDFEF7DDFF0020ECE719
:1056B000606820B1304601F075FD1420E5E76560B3
:1056C000304601F06FFD0020DFE72DE9F041044690
:1056D0000E46154600272078012802D00120BDE89B
:1056E000F08101F05BFD0746A07AE8B115F0010FEB
:1056F0000AD005E00023022231462046FFF713F9C5
:10570000A07A0028F6D105E0002302223146204687
:10571000FFF709F9384601F045FD15F0040F01D1F6
:10572000FEF7A1FF0020DAE7606820B1384601F0FB
:1057300039FD1420D3E76660384601F033FD0020C0
:10574000CDE72DE9F04704460D464FF000092078DB
:10575000012802D00120BDE8F08701F01FFD81463D
:10576000A07A287304F10B0705F10408002605E070
:1057700017F8010B08F8010B701CC6B2082EF7D3FE
:1057800060682860484601F00DFD0020E3E7000056
:105790008D1E0020781E00208E1E0020A01E0020DE
:1057A0002DE9F04106460D464FF0000830780228FA
:1057B00004D0012028700020BDE8F08101F0EEFC4B
:1057C00080467468E08A78B12169081D20610F68FD
:1057D000E08A401EE082A1682069884201D16068A9
:1057E00020610020287002E01F202870002740461A
:1057F00001F0D8FC3846DFE72DE9F04106460F46B8
:105800004FF00008F748007810B10020BDE8F081A3
:1058100001F0C4FC8046F4480568006820B1F248F5
:1058200000684068F0490860404601F0BBFC3DB3A9
:1058300001F0B4FC8046ED480468C4B1006800681B
:10584000EA490860404601F0ADFC666006EB87005F
:10585000A060E6602661A7820020E0820220287016
:10586000002028816C602846FFF7D0F808E0DE4869
:1058700000686860DC480560404601F093FC002544
:105880002846C3E72DE9F0470446894615464FF000
:10589000000A2078022804D0012028702046BDE8A4
:1058A000F087D048007818B10F2028702046F6E71E
:1058B00001F074FC8246A07A10B14FF0010801E0BB
:1058C0004FF00008B9F1000F03D0B9F1010F45D135
:1058D0001FE0B8F1000F15D16668C4480068306059
:1058E000C248066000202070BF4800686060002049
:1058F0002081BD480460504601F054FC002028700F
:10590000002705E0504601F04DFC4920287027464D
:105910002BE005E00023042219462046FFF703F898
:10592000A07A0028F6D16668B04800683060AF48B9
:10593000066000202070AC48006860600020208174
:10594000A9480460504601F02DFCB8F1010F01D1C7
:10595000FEF789FE00202870002706E0504601F07F
:1059600021FC07202870274600BF00BF384696E775
:1059700070B50546002601F011FC06466C686068AB
:10598000E060606820610020E082304601F00AFC9F
:10599000002070BD2DE9F0470746884615464FF0B8
:1059A00000093878022804D0012028700020BDE8C2
:1059B000F0878C48007818B1022028700020F6E7A4
:1059C0008B48007818B10D2028700020EFE701F017
:1059D000E5FB81467C68E08A98B12169081D206159
:1059E0000E68E08A401EE082A1682069884201D1E9
:1059F00060682061484601F0D5FB002028703046E1
:105A0000D5E77C48006890F8300040F00400794900
:105A1000096881F8300000207649096881F8310072
:105A200074480068C0F82C803846FEF7B7FF484637
:105A300001F0B8FBFEF717FE01F0B0FB81466D48A0
:105A4000006890F8310020B101280DD002280AD159
:105A500005E068480068066A002028700DE000260E
:105A60000E20287009E000BF394662480068FEF742
:105A700045FF00260A20287000BF00BF00205D49B6
:105A8000096881F830005B49096881F8310059499B
:105A90000968C861574909680862484601F082FBF5
:105AA000304684E72DE9F04104460F4615464FF095
:105AB00000082078022804D0012028700020BDE8CA
:105AC000F08101F06BFB8046A07A18B300267FB10D
:105AD000012F0CD107E00223042200212046FEF70B
